S014000075736172745F6469727665722E73726563F6
S11300000C942A000C943F000C943F000C943F0085
S11300100C943F000C943F000C943F000C943F0060
S11300200C943F000C943F000C943F000C943F0050
S11300300C943F000C943F000C943F000C943F0040
S11300400C943F000C943F000C943F000C943F0030
S11300500C943F0011241FBECFE5D8E0DEBFCDBF16
S113006010E0A0E6B0E0E2E8F1E002C005900D92F5
S1130070AA37B107D9F70E9441000C94BF000C9431
S1130080000060E875E280E090E00E945E002FEFDF
S113009082E597E0215080409040E1F700C00000E5
S11300A080E690E00E9485002FEF82E597E02150E2
S11300B080409040E1F700C00000FFCFDC01CB019D
S11300C0880F991FAA1FBB1F880F991FAA1FBB1F48
S11300D09C01AD01220F331F441F551F220F331FF4
S11300E0441F551F60E072E18AE790E00E949D0082
S11300F02150310930BD29B9539A549A86E880BDFC
S113010008955D9BFECF8CB90895CF93DF93EC01E6
S11301108881882379F021960E9481002FEF80E75F
S113012092E0215080409040E1F700C000008991A6
S11301308111F2CFDF91CF910895A1E21A2EAA1B6B
S1130140BB1BFD010DC0AA1FBB1FEE1FFF1FA21783
S1130150B307E407F50720F0A21BB30BE40BF50B80
S1130160661F771F881F991F1A9469F76095709509
S1130170809590959B01AC01BD01CF010895F89441
S1050180FFCFAB
S113018248656C6C6F20666F726D2041746D656793
S10D01926120746F205069630000BF
S9030000FC
